:020000040800F2
:1000000070070020DD010008E1010008E30100089D
:10001000E5010008E7010008E90100080000000010
:10002000000000000000000000000000EB010008DC
:10003000ED01000800000000EF010008F1010008D8
:10004000F3010008F3010008F3010008F3010008C0
:10005000F3010008F3010008F3010008F3010008B0
:10006000F3010008F3010008F3010008F3010008A0
:10007000F3010008F3010008F3010008F301000890
:10008000F3010008F3010008F3010008F301000880
:10009000F3010008F3010008F3010008F301000870
:1000A000F3010008F3010008F3010008F301000860
:1000B000F3010008F3010008F3010008F301000850
:1000C000F3010008F3010008F3010008F301000840
:1000D000F3010008910F0008F3010008F301000884
:1000E000F3010008F3010008F3010008F301000820
:1000F000F3010008F3010008F3010008F301000810
:10010000F3010008F3010008F3010008F3010008FF
:10011000F3010008F3010008F3010008F3010008EF
:10012000F3010008F3010008F3010008F3010008DF
:1001300000F002F800F042F80AA090E8000C8244B7
:100140008344AAF10107DA4501D100F037F8AFF294
:10015000090EBAE80F0013F0010F18BFFB1A43F0A5
:10016000010318472C1800004C180000103A24BF57
:1001700078C878C1FAD8520724BF30C830C144BF0C
:1001800004680C607047000000230024002500264E
:10019000103A28BF78C1FBD8520728BF30C148BFEA
:1001A0000B607047782900F09380632900F0D881B4
:1001B000002070471FB51FBD10B510BD00F0F2F94B
:1001C0001146FFF7F7FF00F0D7FF00F010FA03B475
:1001D000FFF7F2FF03BC00F076FF0000084800477D
:1001E000FEE7FEE7FEE7FEE7FEE7FEE7FEE7FEE7E7
:1001F000FEE7FEE703480449044A054B7047000048
:1002000031010008700100207007002070030020F9
:1002100070030020704700000FB4044910B503AA12
:10022000029800F0A9F910BC5DF814FB040000204E
:1002300070B5044685690068C10601D5302600E026
:100240002026C00707D070BDD4E901213046904771
:10025000206A401C20626D1EF6D570BD70B5044644
:1002600085690078C00707D170BDD4E9012120203D
:100270009047206A401C20626D1EF6D570BD70B597
:100280000C460546012A05D02878800600D5EA6983
:10029000002302E0012305E05B1C934202D2E05CF4
:1002A0000028F9D1A869E618C01AA861286A18447C
:1002B00028622846FFF7BCFF04E0D5E9012114F8C5
:1002C000010B9047B442F8D32846FFF7C7FF70BD33
:1002D00070B504460D4621461068AFF300802188B2
:1002E000090502D50F4A7A4402E00E4A7A440E32DA
:1002F000002104F1240305E000F00F060009965DDB
:100300005E54491C0028F7D120780023000704D54B
:10031000702D02D009B1022311322046BDE8704091
:1003200000F0A2B86C1600002DE9F05F8946044683
:100330004FF0000ADFF824B1FB44C0F820A02046AB
:10034000E168884700287DD0252806D0D4E901211E
:100350009047206A401C2062F1E700255F46204656
:10036000E16888472028064607DB312E05D2B819F8
:1003700010F8200C08B10543F1E7A80701D525F0D6
:100380000405C4F81CA00027C4F818A02A2E09D020
:10039000304600F091FE38B304EB8708303EC8F8D1
:1003A000186019E059F8041B204604EB870291619C
:1003B000E1688847012F064618D1E069002820DA55
:1003C00025F020051DE0D8F8180000EB800006EBB2
:1003D00040003038C8F818002046E16888470646D3
:1003E00000F06AFE0028EED1012F0AD02E2E08D18F
:1003F0002046E16888477F1C0646022F45F020050D
:10040000C4DBA069002803DA404245F00105A06181
:10041000E80701D025F01005A6B1A6F14100192882
:1004200002D8203645F400654A463146204625600C
:100430004D46FFF7B7FE60B1012807D0ED1D25F04E
:10044000070000E007E000F1080978E705F104097A
:1004500075E730467AE7206ABDE8F09F4216000053
:1004600070477047704770472DE9F0470D46994631
:100470009246044600F124080168880604D5E06924
:1004800021F01001216000E00120A84201DD471B9E
:1004900000E00027A1697A1902EB0900081AA0619F
:1004A0002078C00602D42046FFF7C2FE002608E0EE
:1004B000D4E901211AF806009047206A401C761CF6
:1004C00020624E45F4DB2078C0060AD52046FFF7AF
:1004D000AFFE06E0D4E9012130209047206A401C9D
:1004E0002062381EA7F10107F4DC07E0D4E90121FE
:1004F00018F805009047206A401C2062281EA5F1CC
:100500000105F3DC2046FFF7A9FE2078000602D59E
:100510000220BDE8F0870120FBE7000001694A1CCA
:1005200002610878704700B58FB0CDE90131002134
:10053000059105497944CDE9031011466846FFF756
:10054000F3FE0FB000BD0000E5FFFFFF10B54369EB
:1005500013B1AFF3008001E0FFF791FE012010BD61
:10056000127800F124010A7000224A700122EDE79E
:1005700011684FF0FF32E9E7074B70B50D467B4439
:10058000FFF7D1FF0446284600F008F810B14FF0FD
:10059000FF3070BD204670BDDB0B0000007B00F01B
:1005A00080007047754600F029F8AE4605006946A0
:1005B000534620F00700854618B020B5FFF71AFE15
:1005C000BDE820404FF000064FF000074FF0000854
:1005D0004FF0000B21F00701AC46ACE8C009ACE8D5
:1005E000C009ACE8C009ACE8C0098D4670470446B4
:1005F000AFF300802046FFF7EAFD00000048704797
:10060000100100200A48806940F00800084988610C
:100610000848006820F00F00064908600846006896
:1006200040F00300086000200349086070470000A4
:1006300000100240040C0140A08121422DE9F0414C
:100640000746884615460421052000F02DF80021B4
:10065000012000F01BFD80210A2000F043FC002453
:1006600005E0395D092000F011FD601CC4B244456D
:10067000F7DB0321012000F009FDFF2400BF052066
:1006800000F0A6FB0646601EC4B21CB106F00400D2
:100690000028F4D0222000F09BFB2870212000F0DD
:1006A00097FB6870BDE8F08170B505460C460026E2
:1006B000284600F08DFB064626EA0401284600F095
:1006C000E5FC70BD10B500F09DFB072000F0DAFBE3
:1006D00000F090FA00F022F9022000F017FD00F07F
:1006E00023F9412000F03AF810BD00001848806955
:1006F00040F00800164988610846806940F04000D3
:1007000088611448006820F47000124908600846A7
:10071000006840F4401008600E480C30006840F05B
:1007200020000C490C3108600B48006820F4700070
:10073000094908600846006840F44010086006480F
:100740000C30006840F0200003490C31086070470D
:1007500000100240000C01400018014010B5044692
:10076000412C26D108210846FFF79EFF3D2111208C
:1007700000F08CFC8621172000F088FC7F212620C9
:1007800000F084FC1E212D2000F080FC00212C2094
:1007900000F07CFC8D212A2000F078FC3E212B20EB
:1007A00000F074FC4FF47A7000F0CEFC00F0BCF85E
:1007B00001E0012010BD0020FCE7000000B5002092
:1007C00015490861C8601420486100208861C8612B
:1007D0000846006840F001000860084640680F497C
:1007E00008400D494860084600680D4908400A491C
:1007F00008600846006820F48020086008464068C9
:1008000020F4FE0048600020886000214FF0006066
:1008100000F058F800BD0000001002400000FFF892
:10082000FFFFF6FE2DE9F0410746884614461D46B7
:10083000284600F033F8C5F1040007FA00F60F204F
:10084000284100EA0800064306F00F06E21704EB11
:10085000D2625211920002F1E022D2F80021214628
:10086000E31704EBD3635B11A4EB431C012303FAEE
:100870000CF31A432046E31704EBD3635B119B0090
:1008800003F1E023C3F800210348005D40EA0610AD
:1008900001490855BDE8F08100E400E00146072366
:1008A00023EA01021202054B18684FF6FF031840B5
:1008B000034B18431043014B186070470CED00E0E8
:1008C0000000FA05024A0A400243024B1A607047D0
:1008D00080FFFF1F08ED00E00C48806940F0CC006D
:1008E0000A4988610A480068C0F313000849086093
:1008F000084600680749084305490860064800683B
:1009000020F00F000449086070470000001002400A
:10091000040C0140000090940008014010B5032130
:100920001420FFF7C1FE10BD10B5142000F050FADE
:10093000044604F0030018B90321142000F0D2FA91
:1009400010BDF0B587B00546002708210846FFF71F
:10095000ABFE00210D2000F099FB80210E20FFF757
:10096000A3FE93208DF8040020208DF8050006A832
:1009700001AB022201A900900C2000F045F80646C8
:1009800086B9002407E001A8005D285501A8005D94
:100990004740601CC4B2042CF5DB01A8005DB842DE
:1009A00000D0022680210E2000F09CFA304607B0CD
:1009B000F0BD2DE9F04188B004460D4616461F46AD
:1009C0008DF808408DF809503068CDF80A00B088DD
:1009D000ADF80E003868049007A802AB0C2202A9FB
:1009E00000900E2000F010F88046B8F1000F05D1FD
:1009F000082000F0EDF900F0080008B94FF00208F7
:100A0000404608B0BDE8F0812DE9FE4F0646884615
:100A100091469A46DDF830B0022002900020019005
:100A200000900C2E06D00E2E09D11220019010201D
:100A3000009005E0772001903020009000E000BF9A
:100A400000BF019840F08001022000F01FFB8021D0
:100A50000420FFF729FE0021012000F017FB802170
:100A60000A2000F03FFA002506E018F805100920DA
:100A700000F00CFB681C85B24D45F6DB31460120C9
:100A800000F004FB0C2E03D180210D2000F02AFA87
:100A90004FF4FA6500BF042000F09AF90446681E7E
:100AA00085B235B104F0010018B900982040002843
:100AB000F1D080210D20FFF7F7FD002D38D0062062
:100AC00000F086F900F01B0078BB0020029001982E
:100AD000204000F0010008B1012002900C2E27D127
:100AE0000A2000F075F904460C2000F071F900F0BE
:100AF00007072FB1601E07EBC0008BF8000003E072
:100B0000E006000E8BF8000004B90124122C00DD71
:100B10001224002506E0092000F05AF90AF8050021
:100B2000681C85B2A542F6DB02E0FFE702200290D6
:100B300080210C2000F0D6F90021012000F0A6FA57
:100B40000298BDE8FE8FF0B587B005460E4630200E
:100B50008DF804008DF805500DF10602022101A860
:100B6000FFF76CFD06A801AB042201A900900C2040
:100B7000FFF74AFF07466FB99DF81800902809D182
:100B8000002404E001A8005D3055601CC4B2102CA4
:100B9000F8DB00E00227384607B0F0BD70B588B03A
:100BA00005460C4608210846FFF77EFD07210D206B
:100BB00000F06CFA0321142000F094F98DF808502D
:100BC00007A802AB012202A900900C20FFF71CFF2E
:100BD000064656B99DF81C00102806D19DF808005D
:100BE00020709DF80900607000E00226304608B0D1
:100BF00070BD000010B502201B490860642000F0A1
:100C0000A3FA02201849091D0860642000F09CFA2C
:100C1000022015490860642000F096FA0F21012097
:100C200000F034FA0F21012000F030FA0A2000F021
:100C30008BFA3D21112000F029FA1E212D2000F011
:100C400025FA00212C2000F021FA8D212A2000F025
:100C50001DFA3E212B2000F019FA4021152000F04A
:100C600015FA002010BD0000101C014070B58CB0BA
:100C7000054693208DF8180070208DF8190000208B
:100C80008DF81E0000240BE0295D06AAA01C11545B
:100C90009DF81E00295D48408DF81E00601CC4B2FE
:100CA000042CF1DB0DF11F02072106A8FFF7C6FC9B
:100CB00008210846FFF7F8FC0BA801AB092206A99A
:100CC00000900C20FFF7A0FE06462EB99DF82C00E0
:100CD000182801D1002600E0022630460CB070BD75
:100CE000F0B587B006460F46A0208DF804008DF8B9
:100CF00005600DF10602022101A8FFF79FFC06A87E
:100D000001AB042201A900900C20FFF77DFE0546EF
:100D10004DB99DF81800042805D19DF8040000F095
:100D20000F000A2800D00225E5B9002404E0385D50
:100D300001A90855601CC4B2102CF8DB05AA1021CB
:100D400001A8FFF77BFC06A801AB122201A90090C5
:100D50000C20FFF759FE05461DB99DF81800042820
:100D600000D00225284607B0F0BD000070B505464A
:100D70000E460224FFF7D8FD12495220FFF70EFF5E
:100D80000446D4B902241048FFF7DBFD044624B919
:100D900002240D48FFF76AFF04463CB902240A4BBF
:100DA000324629466120FFF704FE04463CB9074954
:100DB0002846FFF7C8FE002401E0FFF7AFFD2046FC
:100DC00070BD00000B0000200D000020E00000209E
:100DD00070B5044600260120094908607E2000EA1B
:100DE000440040F08005284600F062F8002000F042
:100DF0005FF8064601200249091F0860304670BDB1
:100E0000141C01401A48806940F0080018498861A4
:100E10000846C06940F48040C86116480068C0F3C5
:100E20001300144908600846006813490843114933
:100E3000086010480C30006840F460400D490C31E7
:100E400008600E48006820F0FF000C490860084662
:100E5000006840F03300086002200849143108603F
:100E60000748008840F44170054908807047000039
:100E700000100240040C01400000B0B4001C01400E
:100E80000038004000F00700084909884FF6C77293
:100E90001140064A11801146098841EAC0011180BB
:100EA0001146098841F04001118070470038004028
:100EB000014600BF0A48008800F002000028F9D06F
:100EC0000748001D018000BF0548008800F00100B0
:100ED0000028F9D00248001D0088C0B27047000009
:100EE0000838004070B505460C4600262846FFF736
:100EF0006FFF064646EA0401284600F0C7F870BDB9
:100F000030B504460025FFF759FC1F48006840F43F
:100F100080301D49086000BF1B480068400C002855
:100F2000FAD04FF4806018494860A01EC4B2084649
:100F3000406840EA844048600846406840F4803099
:100F400048601248006840F03200104908600E48BE
:100F5000006840F080700C49086000BF0A480068D3
:100F6000400E0028FAD00848406840F002000649C8
:100F7000486005E004484068C0F3870505F00305B4
:100F8000022DF7D130BD00000010024000200240C9
:100F90001D49098801F0200111B31B49091D098869
:100FA000C8B21A49098801F40041C9B9174909882A
:100FB00001F4804161B10A2803D00021134A118055
:100FC00020E01249098841F40041104A118019E0DB
:100FD0000D2806D10D49098841F480410B4A118042
:100FE00010E00A490988C1F30D01094A5054074924
:100FF0000988491C054A118011460988C72901DD65
:1010000000211180704700000038014008000020D6
:10101000180000202DE9F04106460F4690460224B4
:1010200040F6FF75FFF780FC00BF681E85B21549CA
:101030005220FFF7B3FD04460DB1002CF5D1DDB110
:10104000D4B902241048FFF77CFC044624B90224DA
:101050000D48FFF70BFE04463CB902240A4B3A4602
:1010600031466120FFF7A5FC04463CB941463046B5
:10107000FFF736FE002401E0FFF750FC2046BDE8F4
:10108000F08100000B0000200D00002070B5044628
:101090000D460120074908607E2000EA44063046DC
:1010A000FFF706FF2846FFF703FF01200149091F4C
:1010B000086070BD141C014030380A2801D201209C
:1010C00070470020704700BF704700004FF0E021DC
:1010D000096921F004014FF0E0221161C21700EB11
:1010E0005272C2F3C702074B1A701946097801EB16
:1010F0004102C2EBC1114FF6FF7202EAC101024A7E
:1011000011807047000000200200002001460D4AB7
:1011100012884A434FF0E0235A6100229A6101226B
:101120001A6100BF4FF0E022106900F001021AB10D
:1011300000F48032002AF5D000224FF0E0231A613B
:101140009A61704702000020002103E000BF00BF49
:1011500000BF491C8142F9D37047000000BF054A17
:10116000128802F04002002AF9D0C2B2014B1B1DC6
:101170001A807047003801400920FFF7C1FE0220A5
:10118000FFF78CFB4820FFF7A1FFFFF7A5FB4FF40B
:10119000E131482000F0CEF8FFF7A8FAFFF732FA65
:1011A000FFF790FA89E045494548007800F0AEF82D
:1011B000064644480078012823D14FF47A70FFF79F
:1011C000A5FF002406E04048015D40A0FFF724F899
:1011D000601C84B2042CF6DB002406E03D48015D6F
:1011E0003DA0FFF719F8601C84B2102CF6DB3BA081
:1011F000FFF712F80020334908704FF47A70FFF7B8
:1012000085FF3748008800F40040002855D0344856
:101210000088C0F30D05112D28D1324800785728D9
:1012200024D1002030490860002406E02D49601CCC
:10123000085C2E490855601C84B2102CF6DB02268F
:101240002A4A1E491E480078FFF7E4FE06461EB9EA
:1012500027A0FEF7E1FF02E027A0FEF7DDFF4FF435
:101260007A70FFF753FF01201F490860022D21D13A
:101270001C4800784A281DD11A48407854280AD1C1
:1012800000201F4908604FF4FA70FFF73FFF01206C
:101290001C49C1F894011348407846280AD100201F
:1012A000114908604FF4FA70FFF730FF012016492A
:1012B000C1F8940100200A49088074E71100002059
:1012C000170000200A0000200D0000202530327891
:1012D00000000000E0000020256300000D0A00006F
:1012E000080000201800002094812142F000002016
:1012F000B3C9B9A60D0A0000CAA7B0DC0D0A0000E8
:1013000094012342000023420080214270B504462C
:101310000D46022629462046FFF728FD064626B937
:10132000012003490870002070BD0220FCE7000086
:101330000A0000202DE9F05F05460E46300100F05E
:10134000ABF981462E4905FB01F000F0A5F9824674
:10135000494600F0BFF80746384600F07DF984B2F0
:10136000204600F099F98346394600F075FA824626
:101370004FF0834100F0A4F9814600F06DF98046FA
:101380004FF6FF7000EA041404EB080084B21D4815
:10139000806940F004001B4988610846806940F478
:1013A000804088611848006820F47F601649086012
:1013B0000846006840F40B6008601248C06840F4BA
:1013C00080401049C8600846C06820F48040C8606A
:1013D0000E480480001D008842F20C0108430B49AE
:1013E000091D08800846008840F02000088002237C
:1013F000252203210846FFF715FABDE8F09F0000FB
:1014000040420F000010024004080140083801402B
:1014100090EA010F48BF81F0004100F12E82421A8C
:101420003CBF801A89184FEAD0524FF07F4C1CEA1B
:10143000410FA2EBD15318BF9CEA026F00F03B8032
:101440004FF0004C4CEA00204CEA012121FA03FC49
:1014500010EB0C0C1ED202F1FF325FEA1C2040EBB5
:10146000C25038BF70471CF07F0F4FEA400C18BFC6
:10147000BCF17F4F38BF7047C3F12003994008BFCC
:1014800020F00100BCF17F4F38BF7047A0F1C04091
:1014900000F0DDB94FEA3C00000A40EBC25028BF23
:1014A0001CF0FF0F4FEA400CE6D018BFBCF17F4F95
:1014B00038BF7047EAE79CEA026F05D010EA5C0F7C
:1014C00008BF00F00040704710B500F07AF900BF87
:1014D00064FBBE3E4FF47F0C1CEAD0121EBF1CEA18
:1014E000D11392EA0C0F93EA0C0F00F0858090EA7A
:1014F000010F48BF42F4807240F4000C41F4000038
:101500002CF07F4120F07F4000B58142A2EB030226
:101510000FF2081CACEB504EC0F100009EF800E04A
:101520004FEA4E0E00FB0EFC38BF49004FEA2C1C60
:1015300002F5FA020CFB0EF34FEACE1E4FEA112C15
:101540004FEAC1210EEB635E42EB22420EFB0CFC24
:101550004FEA1C5300FB03114FEA112C4FEA0131F3
:101560000EFB0CFC4FEADC4C00FB0C11C14228BF07
:1015700009184CEB03335DF804EB10EB410143EB2E
:10158000C250B2F57C0F38BF704729D512F0F00F6A
:101590001CBF00F1C04000F0004070470081828312
:1015A0008485868788898B8C8D8E8F919293959672
:1015B00097999A9C9D9FA0A2A3A5A7A8AAACAEB0FC
:1015C000B2B3B5B7B9BCBEC0C2C5C7C9CCCED1D401
:1015D000D7D9DCDFE2E6E9ECF0F3F7FAFE00000031
:1015E0004FEA400C0CF1807CBCF17E4F28BF704765
:1015F000B0F1C04000F02BB990EA010F0CEAD11312
:1016000048BF42F48072624538BF634507D213F485
:101610007F0F16D080EA010000F00040704710B53F
:1016200000F0CFF8097EFC3E00F005B880EA01002A
:1016300000F00040704780EA010000F0004000F038
:1016400006B912F47F0F04BF0248704780EA010018
:1016500000F0FDB80000C07FC10DD1F19E0206DB95
:101660004FEA002343F0004323FA02F070470042A0
:1016700007D54FEA4001B1F1FE4F02D24FF0000012
:10168000704710B500F09DF8499224800020704703
:101690006FEA200070470000B0FA80F310FA03F2FE
:1016A000C3F19D030AD0D90501EB1220530638BFC0
:1016B000704700F1010008BF20F0010070470000F2
:1016C0004FF47F0C1CEAD0121EBF1CEAD11392EA21
:1016D0000C0F93EA0C0F00F0478090EA010F48BF0F
:1016E00042F480724FF0004C4CEA00204CEA012199
:1016F00002EB0302A0FB0113A2F50002002918BFB0
:1017000043F001035B0028BF4FEA330342EB224260
:101710005FEA132C4CEBC2502EBFBCEB436FB2F50B
:101720007C0F70474FEA036CBCF1004F08BF20F0FC
:101730000100B2F57C0F38BF70470BD582F0FF0275
:1017400012F5803FC8BF704700F1C040D8BF00F01D
:101750000040704700F5000C5FEA4C0C48BF704732
:10176000B0F1C04000F073B890EA010F0CEAD11359
:1017700048BF42F48072624538BF634504D280EAB4
:10178000010000F00040704710B500F01AF800BFEB
:101790008900013E00F007B800F009B85FEA410C8B
:1017A0005FEA1C6C08D080EA010000F050B85FEAE4
:1017B000400C5FEA1C6CF6D14FF00040A0F58000B1
:1017C00070470EF1020E2EF0030E5EF8044B244219
:1017D00004D44FEA4102B2F17F4F11D84FEA4003DF
:1017E000B3F17F4F0CD80ED14FEAD07CB2F17F4FCE
:1017F0000CEB4C0C0CF1020C08BF4CEBD17C04E060
:101800004FF0080C01E04FEAD17C0CEB4C0324FABA
:1018100003F404F00704B4F1040C06D20EEB840CBC
:10182000BDE810404CF0010C6047DFE80CF0070801
:1018300002024FF00040A0F5800010BD08464200B3
:1018400018BFD2F1807288BF00F0004010BDFF21A8
:1018500041EAD050C005704780F0004090EA010F87
:101860007FF5DDAD81F0004100F007B890EA010F8F
:1018700048BF81F000413FF5D2AD421A04D882F052
:101880000042A0EB020011444FEAD0524FF07F4CCF
:101890001CEA410FA2EBD15318BF9CEA026F4AD059
:1018A0004FF0004C4CEA00204CEA012121FA03FCE5
:1018B000B0EB0C0C0FD412F0FE0F36D05FEA4C00E8
:1018C0001DD5001240EBC25038BF70471CF03F0FCF
:1018D00018BF70470BE0A2F101025FEA1C2040EB49
:1018E000C25038BF70471CF07F0F18BF7047C3F15C
:1018F0002003994014BF401E20F00100704780086B
:101900004FEA122308BF7047B0FA80FCA2EB0C022A
:10191000CCF1280C60FA0CF093EA122F04BF00EB14
:10192000C25070474FEAC3707047130A5FEADC1079
:1019300008BF7047F6E79CEA026F04D010EA5C0F1C
:1019400008BF0020704710B5FFF73BFF40DFF63EB1
:1019500081F0004070473031323334353637383912
:1019600041424344454640305800303132333435EB
:101970003637383961626364656640307800040048
:10198000000800000000000000020001000010003C
:10199000B019000800000020180000006C010008C9
:1019A000C819000818000020580700008801000826
:1019B0000000000000000000000000000000000027
:0819C00000FFFFFFFFFFFF180D
:0400000508000131BD
:00000001FF
